{
  "_format": "hh-sol-artifact-1",
  "contractName": "RevSharable",
  "sourceName": "contracts/RevSharable.sol",
  "abi": [
    {
      "anonymous": false,
      "inputs": [
        {
          "indexed": true,
          "internalType": "address",
          "name": "previousOwner",
          "type": "address"
        },
        {
          "indexed": true,
          "internalType": "address",
          "name": "newOwner",
          "type": "address"
        }
      ],
      "name": "OwnershipTransferred",
      "type": "event"
    },
    {
      "inputs": [],
      "name": "distribute",
      "outputs": [],
      "stateMutability": "nonpayable",
      "type": "function"
    },
    {
      "inputs": [],
      "name": "owner",
      "outputs": [
        {
          "internalType": "address",
          "name": "",
          "type": "address"
        }
      ],
      "stateMutability": "view",
      "type": "function"
    },
    {
      "inputs": [],
      "name": "renounceOwnership",
      "outputs": [],
      "stateMutability": "nonpayable",
      "type": "function"
    },
    {
      "inputs": [
        {
          "internalType": "address",
          "name": "_to",
          "type": "address"
        }
      ],
      "name": "setCharityWallet",
      "outputs": [],
      "stateMutability": "nonpayable",
      "type": "function"
    },
    {
      "inputs": [
        {
          "internalType": "address",
          "name": "newOwner",
          "type": "address"
        }
      ],
      "name": "transferOwnership",
      "outputs": [],
      "stateMutability": "nonpayable",
      "type": "function"
    },
    {
      "inputs": [],
      "name": "wallet0",
      "outputs": [
        {
          "internalType": "address",
          "name": "",
          "type": "address"
        }
      ],
      "stateMutability": "view",
      "type": "function"
    }
  ],
  "bytecode": "0x600180546001600160a01b0319167362760fdae6c7f42f618e71321ff8f582711810691790556101206040527391ac9b0dfe3234473c4492127bb40e072958dbdd6080908152738c8f766def561a4eae7a629921d8b34af06ba85060a05273a56c03c9f73421e19759ddb5973f0d0340834e3b60c05273dfb57b7b2f7cf98536fa9bbc74814d2cb993067860e05273617885c90888a82bd57b037a23144b1ce88ec0ba610100526100b4906002906005610120565b503480156100c157600080fd5b506100cb336100d0565b61019a565b600080546001600160a01b038381166001600160a01b0319831681178455604051919092169283917f8be0079c531659141344cd1fd0a4f28419497f9722a3daafe3b4186f6b6457e09190a35050565b828054828255906000526020600020908101928215610175579160200282015b8281111561017557825182546001600160a01b0319166001600160a01b03909116178255602090920191600190910190610140565b50610181929150610185565b5090565b5b808211156101815760008155600101610186565b6104a3806101a96000396000f3fe608060405234801561001057600080fd5b50600436106100625760003560e01c806330563bd714610067578063715018a61461007c5780638da5cb5b14610084578063b3233ee2146100a8578063e4fc6b6d146100bb578063f2fde38b146100c3575b600080fd5b61007a6100753660046103ca565b6100d6565b005b61007a610130565b61008c61016b565b6040516001600160a01b03909116815260200160405180910390f35b60015461008c906001600160a01b031681565b61007a61017a565b61007a6100d13660046103ca565b6102c7565b336100df61016b565b6001600160a01b03161461010e5760405162461bcd60e51b8152600401610105906103f1565b60405180910390fd5b600180546001600160a01b0319166001600160a01b0392909216919091179055565b3361013961016b565b6001600160a01b03161461015f5760405162461bcd60e51b8152600401610105906103f1565b6101696000610367565b565b6000546001600160a01b031690565b3361018361016b565b6001600160a01b0316146101a95760405162461bcd60e51b8152600401610105906103f1565b47806101e95760405162461bcd60e51b815260206004820152600f60248201526e042616c616e6365206973203c3d203608c1b6044820152606401610105565b60006101f68260026103b7565b6001546040519192506001600160a01b03169082156108fc029083906000818181858888f19350505050158015610231573d6000803e3d6000fd5b50600061023f8260056103b7565b905060005b60058110156102c1576002818154811061026e57634e487b7160e01b600052603260045260246000fd5b60009182526020822001546040516001600160a01b039091169184156108fc02918591818181858888f193505050501580156102ae573d6000803e3d6000fd5b50806102b981610446565b915050610244565b50505050565b336102d061016b565b6001600160a01b0316146102f65760405162461bcd60e51b8152600401610105906103f1565b6001600160a01b03811661035b5760405162461bcd60e51b815260206004820152602660248201527f4f776e61626c653a206e6577206f776e657220697320746865207a65726f206160448201526564647265737360d01b6064820152608401610105565b61036481610367565b50565b600080546001600160a01b038381166001600160a01b0319831681178455604051919092169283917f8be0079c531659141344cd1fd0a4f28419497f9722a3daafe3b4186f6b6457e09190a35050565b60006103c38284610426565b9392505050565b6000602082840312156103db578081fd5b81356001600160a01b03811681146103c3578182fd5b6020808252818101527f4f776e61626c653a2063616c6c6572206973206e6f7420746865206f776e6572604082015260600190565b60008261044157634e487b7160e01b81526012600452602481fd5b500490565b600060001982141561046657634e487b7160e01b81526011600452602481fd5b506001019056fea264697066735822122032b2d168aec11bd64a57f10a0efecc8a4c745678eecfb7c523a56a72a27bda2b64736f6c63430008040033",
  "linkReferences": {},
  "deployedLinkReferences": {}
}